{
  "_format": "hh-sol-artifact-1",
  "contractName": "chai",
  "sourceName": "contracts/Chai.sol",
  "abi": [
    {
      "inputs": [],
      "stateMutability": "nonpayable",
      "type": "constructor"
    },
    {
      "inputs": [
        {
          "internalType": "string",
          "name": "data",
          "type": "string"
        }
      ],
      "name": "Feed",
      "outputs": [],
      "stateMutability": "nonpayable",
      "type": "function"
    },
    {
      "inputs": [
        {
          "internalType": "string",
          "name": "_name",
          "type": "string"
        },
        {
          "internalType": "string",
          "name": "_TeaName",
          "type": "string"
        },
        {
          "internalType": "string",
          "name": "_message",
          "type": "string"
        },
        {
          "internalType": "string",
          "name": "_snacks",
          "type": "string"
        }
      ],
      "name": "buyChai",
      "outputs": [
        {
          "internalType": "string",
          "name": "",
          "type": "string"
        }
      ],
      "stateMutability": "payable",
      "type": "function"
    },
    {
      "inputs": [
        {
          "internalType": "address",
          "name": "",
          "type": "address"
        }
      ],
      "name": "feedback",
      "outputs": [
        {
          "internalType": "string",
          "name": "",
          "type": "string"
        }
      ],
      "stateMutability": "view",
      "type": "function"
    },
    {
      "inputs": [],
      "name": "getMemo",
      "outputs": [
        {
          "components": [
            {
              "internalType": "string",
              "name": "name",
              "type": "string"
            },
            {
              "internalType": "string",
              "name": "Tea_Name",
              "type": "string"
            },
            {
              "internalType": "string",
              "name": "Snacks",
              "type": "string"
            },
            {
              "internalType": "string",
              "name": "message",
              "type": "string"
            },
            {
              "internalType": "uint256",
              "name": "timestamp",
              "type": "uint256"
            },
            {
              "internalType": "address",
              "name": "from",
              "type": "address"
            }
          ],
          "internalType": "struct chai.Memo[]",
          "name": "",
          "type": "tuple[]"
        }
      ],
      "stateMutability": "view",
      "type": "function"
    }
  ],
  "bytecode": "0x608060405234801561001057600080fd5b5033600260006101000a81548173ffffffffffffffffffffffffffffffffffffffff021916908373ffffffffffffffffffffffffffffffffffffffff160217905550611ce5806100616000396000f3fe60806040526004361061003f5760003560e01c806312ca6cb6146100445780636d2fbecb146100745780638aa7b4b11461009d578063b8c0c6f0146100c8575b600080fd5b61005e60048036038101906100599190610e09565b610105565b60405161006b9190610f5f565b60405180910390f35b34801561008057600080fd5b5061009b60048036038101906100969190610f81565b6108b9565b005b3480156100a957600080fd5b506100b2610908565b6040516100bf91906111ce565b60405180910390f35b3480156100d457600080fd5b506100ef60048036038101906100ea919061121c565b610c0f565b6040516100fc9190610f5f565b60405180910390f35b60606000341161014a576040517f08c379a000000000000000000000000000000000000000000000000000000000815260040161014190611295565b60405180910390fd5b6040516020016101599061130c565b60405160208183030381529060405280519060200120846040516020016101809190611352565b604051602081830303815290604052805190602001200361028d576040516020016101aa906113b5565b60405160208183030381529060405280519060200120826040516020016101d19190611352565b604051602081830303815290604052805190602001200361023c5767d02ab486cedc0000341015610237576040517f08c379a000000000000000000000000000000000000000000000000000000000815260040161022e90611416565b60405180910390fd5b610288565b674563918244f40000341015610287576040517f08c379a000000000000000000000000000000000000000000000000000000000815260040161027e90611416565b60405180910390fd5b5b6106f7565b60405160200161029c90611482565b60405160208183030381529060405280519060200120846040516020016102c39190611352565b604051602081830303815290604052805190602001200361032e57676124fee993bc0000341015610329576040517f08c379a0000000000000000000000000000000000000000000000000000000008152600401610320906114e3565b60405180910390fd5b6106f6565b60405160200161033d9061154f565b60405160208183030381529060405280519060200120846040516020016103649190611352565b60405160208183030381529060405280519060200120036103cf57676124fee993bc00003410156103ca576040517f08c379a00000000000000000000000000000000000000000000000000000000081526004016103c1906115b0565b60405180910390fd5b6106f5565b6040516020016103de9061161c565b60405160208183030381529060405280519060200120846040516020016104059190611352565b604051602081830303815290604052805190602001200361047057676124fee993bc000034101561046b576040517f08c379a00000000000000000000000000000000000000000000000000000000081526004016104629061167d565b60405180910390fd5b6106f4565b60405160200161047f906116e9565b60405160208183030381529060405280519060200120846040516020016104a69190611352565b604051602081830303815290604052805190602001200361051157676124fee993bc000034101561050c576040517f08c379a00000000000000000000000000000000000000000000000000000000081526004016105039061174a565b60405180910390fd5b6106f3565b604051602001610520906117b6565b60405160208183030381529060405280519060200120846040516020016105479190611352565b60405160208183030381529060405280519060200120036105b257676124fee993bc00003410156105ad576040517f08c379a00000000000000000000000000000000000000000000000000000000081526004016105a490611817565b60405180910390fd5b6106f2565b6040516020016105c190611883565b60405160208183030381529060405280519060200120846040516020016105e89190611352565b604051602081830303815290604052805190602001200361065357676124fee993bc000034101561064e576040517f08c379a0000000000000000000000000000000000000000000000000000000008152600401610645906118e4565b60405180910390fd5b6106f1565b60405160200161066290611950565b60405160208183030381529060405280519060200120846040516020016106899190611352565b60405160208183030381529060405280519060200120036106f057676124fee993bc00003410156106ef576040517f08c379a00000000000000000000000000000000000000000000000000000000081526004016106e6906119b1565b60405180910390fd5b5b5b5b5b5b5b5b5b600260009054906101000a900473ffffffffffffffffffffffffffffffffffffffff1673ffffffffffffffffffffffffffffffffffffffff166108fc349081150290604051600060405180830381858888f1935050505015801561075f573d6000803e3d6000fd5b5060036040518060c001604052808781526020018681526020018481526020018581526020014281526020013373ffffffffffffffffffffffffffffffffffffffff16815250908060018154018082558091505060019003906000526020600020906006020160009091909190915060008201518160000190816107e39190611bdd565b5060208201518160010190816107f99190611bdd565b50604082015181600201908161080f9190611bdd565b5060608201518160030190816108259190611bdd565b506080820151816004015560a08201518160050160006101000a81548173ffffffffffffffffffffffffffffffffffffffff021916908373ffffffffffffffffffffffffffffffffffffffff16021790555050506040518060400160405280601b81526020017f5468616e6b7320666f72207669736974696e6720616e642074656100000000008152509050949350505050565b806000803373ffffffffffffffffffffffffffffffffffffffff1673ffffffffffffffffffffffffffffffffffffffff16815260200190815260200160002090816109049190611bdd565b5050565b60606003805480602002602001604051908101604052809291908181526020016000905b82821015610c0657838290600052602060002090600602016040518060c001604052908160008201805461095f90611a00565b80601f016020809104026020016040519081016040528092919081815260200182805461098b90611a00565b80156109d85780601f106109ad576101008083540402835291602001916109d8565b820191906000526020600020905b8154815290600101906020018083116109bb57829003601f168201915b505050505081526020016001820180546109f190611a00565b80601f0160208091040260200160405190810160405280929190818152602001828054610a1d90611a00565b8015610a6a5780601f10610a3f57610100808354040283529160200191610a6a565b820191906000526020600020905b815481529060010190602001808311610a4d57829003601f168201915b50505050508152602001600282018054610a8390611a00565b80601f0160208091040260200160405190810160405280929190818152602001828054610aaf90611a00565b8015610afc5780601f10610ad157610100808354040283529160200191610afc565b820191906000526020600020905b815481529060010190602001808311610adf57829003601f168201915b50505050508152602001600382018054610b1590611a00565b80601f0160208091040260200160405190810160405280929190818152602001828054610b4190611a00565b8015610b8e5780601f10610b6357610100808354040283529160200191610b8e565b820191906000526020600020905b815481529060010190602001808311610b7157829003601f168201915b50505050508152602001600482015481526020016005820160009054906101000a900473ffffffffffffffffffffffffffffffffffffffff1673ffffffffffffffffffffffffffffffffffffffff1673ffffffffffffffffffffffffffffffffffffffff16815250508152602001906001019061092c565b50505050905090565b60006020528060005260406000206000915090508054610c2e90611a00565b80601f0160208091040260200160405190810160405280929190818152602001828054610c5a90611a00565b8015610ca75780601f10610c7c57610100808354040283529160200191610ca7565b820191906000526020600020905b815481529060010190602001808311610c8a57829003601f168201915b505050505081565b6000604051905090565b600080fd5b600080fd5b600080fd5b600080fd5b6000601f19601f8301169050919050565b7f4e487b7100000000000000000000000000000000000000000000000000000000600052604160045260246000fd5b610d1682610ccd565b810181811067ffffffffffffffff82111715610d3557610d34610cde565b5b80604052505050565b6000610d48610caf565b9050610d548282610d0d565b919050565b600067ffffffffffffffff821115610d7457610d73610cde565b5b610d7d82610ccd565b9050602081019050919050565b82818337600083830152505050565b6000610dac610da784610d59565b610d3e565b905082815260208101848484011115610dc857610dc7610cc8565b5b610dd3848285610d8a565b509392505050565b600082601f830112610df057610def610cc3565b5b8135610e00848260208601610d99565b91505092915050565b60008060008060808587031215610e2357610e22610cb9565b5b600085013567ffffffffffffffff811115610e4157610e40610cbe565b5b610e4d87828801610ddb565b945050602085013567ffffffffffffffff811115610e6e57610e6d610cbe565b5b610e7a87828801610ddb565b935050604085013567ffffffffffffffff811115610e9b57610e9a610cbe565b5b610ea787828801610ddb565b925050606085013567ffffffffffffffff811115610ec857610ec7610cbe565b5b610ed487828801610ddb565b91505092959194509250565b600081519050919050565b600082825260208201905092915050565b60005b83811015610f1a578082015181840152602081019050610eff565b60008484015250505050565b6000610f3182610ee0565b610f3b8185610eeb565b9350610f4b818560208601610efc565b610f5481610ccd565b840191505092915050565b60006020820190508181036000830152610f798184610f26565b905092915050565b600060208284031215610f9757610f96610cb9565b5b600082013567ffffffffffffffff811115610fb557610fb4610cbe565b5b610fc184828501610ddb565b91505092915050565b600081519050919050565b600082825260208201905092915050565b6000819050602082019050919050565b600082825260208201905092915050565b600061101282610ee0565b61101c8185610ff6565b935061102c818560208601610efc565b61103581610ccd565b840191505092915050565b6000819050919050565b61105381611040565b82525050565b600073ffffffffffffffffffffffffffffffffffffffff82169050919050565b600061108482611059565b9050919050565b61109481611079565b82525050565b600060c08301600083015184820360008601526110b78282611007565b915050602083015184820360208601526110d18282611007565b915050604083015184820360408601526110eb8282611007565b915050606083015184820360608601526111058282611007565b915050608083015161111a608086018261104a565b5060a083015161112d60a086018261108b565b508091505092915050565b6000611144838361109a565b905092915050565b6000602082019050919050565b600061116482610fca565b61116e8185610fd5565b93508360208202850161118085610fe6565b8060005b858110156111bc578484038952815161119d8582611138565b94506111a88361114c565b925060208a01995050600181019050611184565b50829750879550505050505092915050565b600060208201905081810360008301526111e88184611159565b905092915050565b6111f981611079565b811461120457600080fd5b50565b600081359050611216816111f0565b92915050565b60006020828403121561123257611231610cb9565b5b600061124084828501611207565b91505092915050565b7f302065746865722063616e206e6f742062652073656e64200000000000000000600082015250565b600061127f601883610eeb565b915061128a82611249565b602082019050919050565b600060208201905081810360008301526112ae81611272565b9050919050565b600081905092915050565b7f4d6173616c612043686169000000000000000000000000000000000000000000600082015250565b60006112f6600b836112b5565b9150611301826112c0565b600b82019050919050565b6000611317826112e9565b9150819050919050565b600061132c82610ee0565b61133681856112b5565b9350611346818560208601610efc565b80840191505092915050565b600061135e8284611321565b915081905092915050565b7f53616d6f73610000000000000000000000000000000000000000000000000000600082015250565b600061139f6006836112b5565b91506113aa82611369565b600682019050919050565b60006113c082611392565b9150819050919050565b7f796f752063616e206e6f7420676574204d6173616c6120436861690000000000600082015250565b6000611400601b83610eeb565b915061140b826113ca565b602082019050919050565b6000602082019050818103600083015261142f816113f3565b9050919050565b7f4461726a65656c696e6720546561000000000000000000000000000000000000600082015250565b600061146c600e836112b5565b915061147782611436565b600e82019050919050565b600061148d8261145f565b9150819050919050565b7f796f752063616e206e6f7420676574204461726a65656c696e67205465610000600082015250565b60006114cd601e83610eeb565b91506114d882611497565b602082019050919050565b600060208201905081810360008301526114fc816114c0565b9050919050565b7f477265656e205465610000000000000000000000000000000000000000000000600082015250565b60006115396009836112b5565b915061154482611503565b600982019050919050565b600061155a8261152c565b9150819050919050565b7f796f752063616e206e6f742067657420477265656e2054656100000000000000600082015250565b600061159a601983610eeb565b91506115a582611564565b602082019050919050565b600060208201905081810360008301526115c98161158d565b9050919050565b7f54616e646f6f7269204368616900000000000000000000000000000000000000600082015250565b6000611606600d836112b5565b9150611611826115d0565b600d82019050919050565b6000611627826115f9565b9150819050919050565b7f796f752063616e206e6f74206765742054616e646f6f72692054656100000000600082015250565b6000611667601c83610eeb565b915061167282611631565b602082019050919050565b600060208201905081810360008301526116968161165a565b9050919050565b7f4e696c6769726920546561000000000000000000000000000000000000000000600082015250565b60006116d3600b836112b5565b91506116de8261169d565b600b82019050919050565b60006116f4826116c6565b9150819050919050565b7f796f752063616e206e6f7420676574204e696c67697269205465610000000000600082015250565b6000611734601b83610eeb565b915061173f826116fe565b602082019050919050565b6000602082019050818103600083015261176381611727565b9050919050565b7f4275747465722054656100000000000000000000000000000000000000000000600082015250565b60006117a0600a836112b5565b91506117ab8261176a565b600a82019050919050565b60006117c182611793565b9150819050919050565b7f796f752063616e206e6f74206765742042757474657220546561000000000000600082015250565b6000611801601a83610eeb565b915061180c826117cb565b602082019050919050565b60006020820190508181036000830152611830816117f4565b9050919050565b7f4e6f6f6e20546561000000000000000000000000000000000000000000000000600082015250565b600061186d6008836112b5565b915061187882611837565b600882019050919050565b600061188e82611860565b9150819050919050565b7f796f752063616e206e6f7420676574204e6f6f6f6e2054656100000000000000600082015250565b60006118ce601983610eeb565b91506118d982611898565b602082019050919050565b600060208201905081810360008301526118fd816118c1565b9050919050565b7f417373616d205465610000000000000000000000000000000000000000000000600082015250565b600061193a6009836112b5565b915061194582611904565b600982019050919050565b600061195b8261192d565b9150819050919050565b7f796f752063616e206e6f742067657420417373616d2054656100000000000000600082015250565b600061199b601983610eeb565b91506119a682611965565b602082019050919050565b600060208201905081810360008301526119ca8161198e565b9050919050565b7f4e487b7100000000000000000000000000000000000000000000000000000000600052602260045260246000fd5b60006002820490506001821680611a1857607f821691505b602082108103611a2b57611a2a6119d1565b5b50919050565b60008190508160005260206000209050919050565b60006020601f8301049050919050565b600082821b905092915050565b600060088302611a937fffffffffffffffffffffffffffffffffffffffffffffffffffffffffffffffff82611a56565b611a9d8683611a56565b95508019841693508086168417925050509392505050565b6000819050919050565b6000611ada611ad5611ad084611040565b611ab5565b611040565b9050919050565b6000819050919050565b611af483611abf565b611b08611b0082611ae1565b848454611a63565b825550505050565b600090565b611b1d611b10565b611b28818484611aeb565b505050565b5b81811015611b4c57611b41600082611b15565b600181019050611b2e565b5050565b601f821115611b9157611b6281611a31565b611b6b84611a46565b81016020851015611b7a578190505b611b8e611b8685611a46565b830182611b2d565b50505b505050565b600082821c905092915050565b6000611bb460001984600802611b96565b1980831691505092915050565b6000611bcd8383611ba3565b9150826002028217905092915050565b611be682610ee0565b67ffffffffffffffff811115611bff57611bfe610cde565b5b611c098254611a00565b611c14828285611b50565b600060209050601f831160018114611c475760008415611c35578287015190505b611c3f8582611bc1565b865550611ca7565b601f198416611c5586611a31565b60005b82811015611c7d57848901518255600182019150602085019450602081019050611c58565b86831015611c9a5784890151611c96601f891682611ba3565b8355505b6001600288020188555050505b50505050505056fea26469706673582212203ad716c79ee312391e1233fd56ee4db3f0148b1c6a26dafc898a1acceb6c9f0e64736f6c63430008110033",
  "linkReferences": {},
  "deployedLinkReferences": {}
}